{
  "_format": "hh-sol-artifact-1",
  "contractName": "Escrow",
  "sourceName": "contracts/Escrow.sol",
  "abi": [
    {
      "inputs": [],
      "stateMutability": "payable",
      "type": "constructor"
    },
    {
      "inputs": [],
      "name": "approve",
      "outputs": [],
      "stateMutability": "nonpayable",
      "type": "function"
    },
    {
      "inputs": [],
      "name": "beneficiary",
      "outputs": [
        {
          "internalType": "address",
          "name": "",
          "type": "address"
        }
      ],
      "stateMutability": "view",
      "type": "function"
    },
    {
      "inputs": [],
      "name": "broker",
      "outputs": [
        {
          "internalType": "address",
          "name": "",
          "type": "address"
        }
      ],
      "stateMutability": "view",
      "type": "function"
    },
    {
      "inputs": [],
      "name": "deleteContract",
      "outputs": [],
      "stateMutability": "nonpayable",
      "type": "function"
    },
    {
      "inputs": [],
      "name": "releaseTime",
      "outputs": [
        {
          "internalType": "uint256",
          "name": "",
          "type": "uint256"
        }
      ],
      "stateMutability": "view",
      "type": "function"
    },
    {
      "inputs": [
        {
          "internalType": "address",
          "name": "_broker",
          "type": "address"
        },
        {
          "internalType": "address",
          "name": "_beneficiary",
          "type": "address"
        },
        {
          "internalType": "uint256",
          "name": "_releaseTime",
          "type": "uint256"
        }
      ],
      "name": "setEscrowParams",
      "outputs": [],
      "stateMutability": "nonpayable",
      "type": "function"
    }
  ],
  "bytecode": "0x6080604052610854806100136000396000f3fe608060405234801561001057600080fd5b50600436106100625760003560e01c806312424e3f1461006757806338af3eed146100715780635a58cd4c1461008f578063abff011014610099578063b5720d47146100b7578063b91d4001146100d3575b600080fd5b61006f6100f1565b005b61007961029b565b6040516100869190610480565b60405180910390f35b6100976102c1565b005b6100a1610388565b6040516100ae9190610480565b60405180910390f35b6100d160048036038101906100cc9190610502565b6103ac565b005b6100db610439565b6040516100e89190610564565b60405180910390f35b60008054906101000a900473ffffffffffffffffffffffffffffffffffffffff1673ffffffffffffffffffffffffffffffffffffffff163373ffffffffffffffffffffffffffffffffffffffff161461017f576040517f08c379a000000000000000000000000000000000000000000000000000000000815260040161017690610602565b60405180910390fd5b6002544210156101c4576040517f08c379a00000000000000000000000000000000000000000000000000000000081526004016101bb90610694565b60405180910390fd5b60004790506000600160009054906101000a900473ffffffffffffffffffffffffffffffffffffffff1673ffffffffffffffffffffffffffffffffffffffff1682604051610211906106e5565b60006040518083038185875af1925050503d806000811461024e576040519150601f19603f3d011682016040523d82523d6000602084013e610253565b606091505b5050905080610297576040517f08c379a000000000000000000000000000000000000000000000000000000000815260040161028e9061076c565b60405180910390fd5b5050565b600160009054906101000a900473ffffffffffffffffffffffffffffffffffffffff1681565b60008054906101000a900473ffffffffffffffffffffffffffffffffffffffff1673ffffffffffffffffffffffffffffffffffffffff163373ffffffffffffffffffffffffffffffffffffffff161461034f576040517f08c379a0000000000000000000000000000000000000000000000000000000008152600401610346906107fe565b60405180910390fd5b60008054906101000a900473ffffffffffffffffffffffffffffffffffffffff1673ffffffffffffffffffffffffffffffffffffffff16ff5b60008054906101000a900473ffffffffffffffffffffffffffffffffffffffff1681565b826000806101000a81548173ffffffffffffffffffffffffffffffffffffffff021916908373ffffffffffffffffffffffffffffffffffffffff16021790555081600160006101000a81548173ffffffffffffffffffffffffffffffffffffffff021916908373ffffffffffffffffffffffffffffffffffffffff16021790555080600281905550505050565b60025481565b600073ffffffffffffffffffffffffffffffffffffffff82169050919050565b600061046a8261043f565b9050919050565b61047a8161045f565b82525050565b60006020820190506104956000830184610471565b92915050565b600080fd5b6104a98161045f565b81146104b457600080fd5b50565b6000813590506104c6816104a0565b92915050565b6000819050919050565b6104df816104cc565b81146104ea57600080fd5b50565b6000813590506104fc816104d6565b92915050565b60008060006060848603121561051b5761051a61049b565b5b6000610529868287016104b7565b935050602061053a868287016104b7565b925050604061054b868287016104ed565b9150509250925092565b61055e816104cc565b82525050565b60006020820190506105796000830184610555565b92915050565b600082825260208201905092915050565b7f4f6e6c79207468652062726f6b65722069732061626c6520746f20617070726f60008201527f766520746865207472616e73616374696f6e2e00000000000000000000000000602082015250565b60006105ec60338361057f565b91506105f782610590565b604082019050919050565b6000602082019050818103600083015261061b816105df565b9050919050565b7f46756e64732063616e6e6f742062652072656c6561736564206265666f72652060008201527f7468652074696d656c6f636b20706572696f642e000000000000000000000000602082015250565b600061067e60348361057f565b915061068982610622565b604082019050919050565b600060208201905081810360008301526106ad81610671565b9050919050565b600081905092915050565b50565b60006106cf6000836106b4565b91506106da826106bf565b600082019050919050565b60006106f0826106c2565b9150819050919050565b7f5472616e73616374696f6e2073656e64696e672066756e647320646964206e6f60008201527f7420657865637574652e00000000000000000000000000000000000000000000602082015250565b6000610756602a8361057f565b9150610761826106fa565b604082019050919050565b6000602082019050818103600083015261078581610749565b9050919050565b7f4f6e6c79207468652062726f6b65722063616e2064656c65746520746865206360008201527f6f6e74726163742e000000000000000000000000000000000000000000000000602082015250565b60006107e860288361057f565b91506107f38261078c565b604082019050919050565b60006020820190508181036000830152610817816107db565b905091905056fea2646970667358221220c76f39a62d9729b4bd72ab50e4d7f15bddadd573b55d811efa52d46777a03da064736f6c63430008110033",
  "linkReferences": {},
  "deployedLinkReferences": {}
}